{
  "_format": "hh-sol-artifact-1",
  "contractName": "Ballot",
  "sourceName": "contracts/Ballot.sol",
  "abi": [
    {
      "inputs": [
        {
          "internalType": "address",
          "name": "_own",
          "type": "address"
        }
      ],
      "stateMutability": "nonpayable",
      "type": "constructor"
    },
    {
      "inputs": [
        {
          "internalType": "string",
          "name": "_UUID",
          "type": "string"
        },
        {
          "internalType": "string",
          "name": "_encryptedVote",
          "type": "string"
        }
      ],
      "name": "addVote",
      "outputs": [],
      "stateMutability": "nonpayable",
      "type": "function"
    },
    {
      "inputs": [
        {
          "internalType": "string",
          "name": "_UUID",
          "type": "string"
        }
      ],
      "name": "checkVoteStatus",
      "outputs": [
        {
          "internalType": "bool",
          "name": "",
          "type": "bool"
        }
      ],
      "stateMutability": "view",
      "type": "function"
    },
    {
      "inputs": [],
      "name": "closeVotingPhase",
      "outputs": [],
      "stateMutability": "nonpayable",
      "type": "function"
    },
    {
      "inputs": [],
      "name": "getAllEncryptedVotes",
      "outputs": [
        {
          "internalType": "string[]",
          "name": "",
          "type": "string[]"
        }
      ],
      "stateMutability": "view",
      "type": "function"
    },
    {
      "inputs": [
        {
          "internalType": "string",
          "name": "_UUID",
          "type": "string"
        }
      ],
      "name": "getEncryptedVote",
      "outputs": [
        {
          "internalType": "string",
          "name": "",
          "type": "string"
        }
      ],
      "stateMutability": "view",
      "type": "function"
    },
    {
      "inputs": [],
      "name": "getOwner",
      "outputs": [
        {
          "internalType": "address",
          "name": "",
          "type": "address"
        }
      ],
      "stateMutability": "view",
      "type": "function"
    },
    {
      "inputs": [],
      "name": "isOwner",
      "outputs": [
        {
          "internalType": "bool",
          "name": "",
          "type": "bool"
        }
      ],
      "stateMutability": "view",
      "type": "function"
    },
    {
      "inputs": [],
      "name": "isVotingPhase",
      "outputs": [
        {
          "internalType": "bool",
          "name": "",
          "type": "bool"
        }
      ],
      "stateMutability": "view",
      "type": "function"
    },
    {
      "inputs": [],
      "name": "owner",
      "outputs": [
        {
          "internalType": "address",
          "name": "",
          "type": "address"
        }
      ],
      "stateMutability": "view",
      "type": "function"
    },
    {
      "inputs": [],
      "name": "votingPhase",
      "outputs": [
        {
          "internalType": "bool",
          "name": "",
          "type": "bool"
        }
      ],
      "stateMutability": "view",
      "type": "function"
    }
  ],
  "bytecode": "0x60806040526001600560006101000a81548160ff0219169083151502179055503480156200002c57600080fd5b50604051620010ef380380620010ef833981810160405281019062000052919062000146565b80806000806101000a81548173ffffffffffffffffffffffffffffffffffffffff021916908373ffffffffffffffffffffffffffffffffffffffff1602179055505033600560016101000a81548173ffffffffffffffffffffffffffffffffffffffff021916908373ffffffffffffffffffffffffffffffffffffffff1602179055505062000178565b600080fd5b600073ffffffffffffffffffffffffffffffffffffffff82169050919050565b60006200010e82620000e1565b9050919050565b620001208162000101565b81146200012c57600080fd5b50565b600081519050620001408162000115565b92915050565b6000602082840312156200015f576200015e620000dc565b5b60006200016f848285016200012f565b91505092915050565b610f6780620001886000396000f3fe608060405234801561001057600080fd5b506004361061009e5760003560e01c80638da5cb5b116100665780638da5cb5b1461014b5780638f32d59b14610169578063bae26f4d14610187578063d4024e67146101a3578063ed90df0f146101ad5761009e565b8063024fe25c146100a357806308e214b7146100c15780630b947b88146100f1578063199541e91461010f578063893d20e81461012d575b600080fd5b6100ab6101dd565b6040516100b89190610863565b60405180910390f35b6100db60048036038101906100d691906109d8565b6101f0565b6040516100e89190610aa9565b60405180910390f35b6100f9610312565b6040516101069190610863565b60405180910390f35b610117610329565b6040516101249190610bd7565b60405180910390f35b61013561049f565b6040516101429190610c3a565b60405180910390f35b6101536104c8565b6040516101609190610c3a565b60405180910390f35b6101716104ec565b60405161017e9190610863565b60405180910390f35b6101a1600480360381019061019c9190610c55565b610543565b005b6101ab61070c565b005b6101c760048036038101906101c291906109d8565b610770565b6040516101d49190610863565b60405180910390f35b600560009054906101000a900460ff1681565b6060600115156003836040516102069190610d09565b908152602001604051809103902060009054906101000a900460ff16151514610264576040517f08c379a000000000000000000000000000000000000000000000000000000000815260040161025b90610d6c565b60405180910390fd5b6004826040516102749190610d09565b9081526020016040518091039020805461028d90610dbb565b80601f01602080910402602001604051908101604052809291908181526020018280546102b990610dbb565b80156103065780601f106102db57610100808354040283529160200191610306565b820191906000526020600020905b8154815290600101906020018083116102e957829003601f168201915b50505050509050919050565b6000600560009054906101000a900460ff16905090565b60606103336104ec565b610372576040517f08c379a000000000000000000000000000000000000000000000000000000000815260040161036990610e39565b60405180910390fd5b60001515600560009054906101000a900460ff161515146103c8576040517f08c379a00000000000000000000000000000000000000000000000000000000081526004016103bf90610ea5565b60405180910390fd5b6002805480602002602001604051908101604052809291908181526020016000905b8282101561049657838290600052602060002001805461040990610dbb565b80601f016020809104026020016040519081016040528092919081815260200182805461043590610dbb565b80156104825780601f1061045757610100808354040283529160200191610482565b820191906000526020600020905b81548152906001019060200180831161046557829003601f168201915b5050505050815260200190600101906103ea565b50505050905090565b60008060009054906101000a900473ffffffffffffffffffffffffffffffffffffffff16905090565b60008054906101000a900473ffffffffffffffffffffffffffffffffffffffff1681565b60008060009054906101000a900473ffffffffffffffffffffffffffffffffffffffff1673ffffffffffffffffffffffffffffffffffffffff163373ffffffffffffffffffffffffffffffffffffffff1614905090565b600560019054906101000a900473ffffffffffffffffffffffffffffffffffffffff1673ffffffffffffffffffffffffffffffffffffffff163373ffffffffffffffffffffffffffffffffffffffff16146105d3576040517f08c379a00000000000000000000000000000000000000000000000000000000081526004016105ca90610e39565b60405180910390fd5b60011515600560009054906101000a900460ff16151514610629576040517f08c379a000000000000000000000000000000000000000000000000000000000815260040161062090610f11565b60405180910390fd5b6000151560038360405161063d9190610d09565b908152602001604051809103902060009054906101000a900460ff16151514156107085760028190806001815401808255809150506001900390600052602060002001600090919091909150908051906020019061069c9291906107a5565b5060016003836040516106af9190610d09565b908152602001604051809103902060006101000a81548160ff021916908315150217905550806004836040516106e59190610d09565b908152602001604051809103902090805190602001906107069291906107a5565b505b5050565b6107146104ec565b610753576040517f08c379a000000000000000000000000000000000000000000000000000000000815260040161074a90610e39565b60405180910390fd5b6000600560006101000a81548160ff021916908315150217905550565b60006003826040516107829190610d09565b908152602001604051809103902060009054906101000a900460ff169050919050565b8280546107b190610dbb565b90600052602060002090601f0160209004810192826107d3576000855561081a565b82601f106107ec57805160ff191683800117855561081a565b8280016001018555821561081a579182015b828111156108195782518255916020019190600101906107fe565b5b509050610827919061082b565b5090565b5b8082111561084457600081600090555060010161082c565b5090565b60008115159050919050565b61085d81610848565b82525050565b60006020820190506108786000830184610854565b92915050565b6000604051905090565b600080fd5b600080fd5b600080fd5b600080fd5b6000601f19601f8301169050919050565b7f4e487b7100000000000000000000000000000000000000000000000000000000600052604160045260246000fd5b6108e58261089c565b810181811067ffffffffffffffff82111715610904576109036108ad565b5b80604052505050565b600061091761087e565b905061092382826108dc565b919050565b600067ffffffffffffffff821115610943576109426108ad565b5b61094c8261089c565b9050602081019050919050565b82818337600083830152505050565b600061097b61097684610928565b61090d565b90508281526020810184848401111561099757610996610897565b5b6109a2848285610959565b509392505050565b600082601f8301126109bf576109be610892565b5b81356109cf848260208601610968565b91505092915050565b6000602082840312156109ee576109ed610888565b5b600082013567ffffffffffffffff811115610a0c57610a0b61088d565b5b610a18848285016109aa565b91505092915050565b600081519050919050565b600082825260208201905092915050565b60005b83811015610a5b578082015181840152602081019050610a40565b83811115610a6a576000848401525b50505050565b6000610a7b82610a21565b610a858185610a2c565b9350610a95818560208601610a3d565b610a9e8161089c565b840191505092915050565b60006020820190508181036000830152610ac38184610a70565b905092915050565b600081519050919050565b600082825260208201905092915050565b6000819050602082019050919050565b600082825260208201905092915050565b6000610b1382610a21565b610b1d8185610af7565b9350610b2d818560208601610a3d565b610b368161089c565b840191505092915050565b6000610b4d8383610b08565b905092915050565b6000602082019050919050565b6000610b6d82610acb565b610b778185610ad6565b935083602082028501610b8985610ae7565b8060005b85811015610bc55784840389528151610ba68582610b41565b9450610bb183610b55565b925060208a01995050600181019050610b8d565b50829750879550505050505092915050565b60006020820190508181036000830152610bf18184610b62565b905092915050565b600073ffffffffffffffffffffffffffffffffffffffff82169050919050565b6000610c2482610bf9565b9050919050565b610c3481610c19565b82525050565b6000602082019050610c4f6000830184610c2b565b92915050565b60008060408385031215610c6c57610c6b610888565b5b600083013567ffffffffffffffff811115610c8a57610c8961088d565b5b610c96858286016109aa565b925050602083013567ffffffffffffffff811115610cb757610cb661088d565b5b610cc3858286016109aa565b9150509250929050565b600081905092915050565b6000610ce382610a21565b610ced8185610ccd565b9350610cfd818560208601610a3d565b80840191505092915050565b6000610d158284610cd8565b915081905092915050565b7f4e6f7420766f7465642100000000000000000000000000000000000000000000600082015250565b6000610d56600a83610a2c565b9150610d6182610d20565b602082019050919050565b60006020820190508181036000830152610d8581610d49565b9050919050565b7f4e487b7100000000000000000000000000000000000000000000000000000000600052602260045260246000fd5b60006002820490506001821680610dd357607f821691505b60208210811415610de757610de6610d8c565b5b50919050565b7f4163636573732044656e69656400000000000000000000000000000000000000600082015250565b6000610e23600d83610a2c565b9150610e2e82610ded565b602082019050919050565b60006020820190508181036000830152610e5281610e16565b9050919050565b7f566f74696e67205068617365205374696c6c20676f696e672100000000000000600082015250565b6000610e8f601983610a2c565b9150610e9a82610e59565b602082019050919050565b60006020820190508181036000830152610ebe81610e82565b9050919050565b7f566f74696e6720506861736520636c6f73656421000000000000000000000000600082015250565b6000610efb601483610a2c565b9150610f0682610ec5565b602082019050919050565b60006020820190508181036000830152610f2a81610eee565b905091905056fea264697066735822122032f02f326d2cfe95eee6b855747bffefcd95caadc00e801f9562d370f885c72f64736f6c63430008090033",
  "linkReferences": {},
  "deployedLinkReferences": {}
}